:020000040800F2
:1000000000000220590C0008890100088D01000839
:100010009101000895010008990100080000000006
:100020000000000000000000000000009D0100082A
:10003000A101000800000000A5010008A9010008B6
:100040009D0C00089D0C00089D0C00089D0C0008EC
:100050009D0C00089D0C00089D0C00089D0C0008DC
:100060009D0C00089D0C00089D0C00089D0C0008CC
:100070009D0C00089D0C00089D0C00089D0C0008BC
:100080009D0C00089D0C00089D0C00089D0C0008AC
:100090009D0C00089D0C00089D0C00089D0C00089C
:1000A0009D0C00089D0C00089D0C00089D0C00088C
:1000B0009D0C00089D0C00089D0C00089D0C00087C
:1000C0009D0C00089D0C00089D0C00089D0C00086C
:1000D0009D0C00089D0C00089D0C00089D0C00085C
:1000E0009D0C00089D0C00089D0C00089D0C00084C
:1000F0009D0C00089D0C00089D0C00089D0C00083C
:100100009D0C00089D0C00089D0C00089D0C00082B
:100110009D0C00089D0C00089D0C00089D0C00081B
:100120009D0C00089D0C00089D0C00089D0C00080B
:100130009D0C00089D0C00089D0C00089D0C0008FB
:100140009D0C00089D0C00089D0C00089D0C0008EB
:100150009D0C00089D0C00089D0C00089D0C0008DB
:100160009D0C00089D0C00089D0C00089D0C0008CB
:100170009D0C00089D0C00089D0C00089D0C0008BB
:080180009D0C00089D0C000815
:10018800704700BFFEE700BFFEE700BFFEE700BF05
:10019800FEE700BF704700BF704700BF704700BF51
:1001A800704700BF4FF46053C4F20203002219687D
:1001B80041F0010119609A60186843F2100120F0BB
:1001C8008470C2F2004120F48030186059601968C8
:1001D80082B021F480211960DA60019200921A68D5
:1001E80042F480321A601A4603E0019BB3F5A06F0F
:1001F80009D0136803F400330093019B0133019382
:10020800009B002BF1D04FF46053C4F202031B682B
:1002180013F4003308BF009301D001230093009B1F
:10022800012B08D04FF46D43CEF200034FF000626B
:100238009A6002B070474FF46053C4F202034FF45F
:10024800E042196CC4F2000241F08051196411684F
:1002580041F4804111609A689A609A6842F40042B9
:100268009A60996845F2084241F4A051C0F2407280
:1002780099605A601A6842F080721A6019460A68D2
:100288004FF4605312F0007FC4F20203F7D04FF42A
:100298007052C4F2020240F2056111609A6822F0BD
:1002A80003029A609A6842F002029A609A6802F021
:1002B8000C02082AFAD1B5E74FF46053C4F20203DE
:1002C8009A6802F00C02042A04BF4FF49051C0F25D
:1002D8007A0106D0082A1CBF4FF41051C0F2F4016D
:1002E8000ED04FF46052C4F2020240F2000392684A
:1002F800C2F20003C2F303129A5CD140196170473D
:1003080058685A6810F4800F586815BF4FF4905316
:100318004FF41053C0F27A03C0F2F40302F03F0224
:10032800B3FBF2F14FF46053C4F20203C0F3881038
:100338005B68C3F30143013301FB00F15B00B1FBD0
:10034800F3F1CEE710B50820012100F0DBF940F207
:100358002403C2F200034FF470441C6001240022FD
:100368004FF440601C710234C4F2020019469A71BD
:100378005C71DA7100F0B2FB4FF44060C4F2020025
:100388004FF4805100F03AFC4FF6FF73C0F23F0380
:100398001A46013B002AFBD14FF44060C4F2020028
:1003A8004FF4005100F02AFC4FF6FF73C0F23F03F0
:1003B8001A46013B002AFBD14FF44060C4F2020008
:1003C8004FF4804100F01AFC4FF6FF73C0F23F0370
:1003D8001A46013B002AFBD14FF44060C4F20200E8
:1003E8004FF4004100F00AFC4FF6FF73C0F27F03A0
:1003F8001A46013B002AFBD14FF44060C4F20200C8
:100408004FF4704100F0FCFB6FF07F431A46013B4C
:10041800002AFBD1B0E700BF82B00190019B5A1EB1
:100428000192002BFAD102B0704700BF4FF460531D
:10043800C4F202030022196841F0010119609A60B0
:10044800186843F2100120F08470C2F2004120F4D1
:10045800803018605960196821F480211960DA60C9
:10046800704700BF43F60203C4F2020300221A7069
:100478001870704782B04FF4605100230193C4F2A2
:10048800020102E012F4003F07D10A68019B013320
:100498000193019BB3F5A06FF4D14FF46053C4F2FC
:1004A80002031868C0F3404002B070474FF460532D
:1004B800C4F202031A6822F0F80242EAC0021A6083
:1004C800704700BF0023C4F247231860704700BF7D
:1004D80043F67003C4F20203002201281A701A704E
:1004E80004D0042801D105221A707047187070478B
:1004F8004FF46863C4F2472318607047014341EA28
:10050800821200995B084FF4605042EA0162013B95
:10051800C4F2020042EA0342426070476023C4F218
:1005280047231860704700BF4FF460538001C4F23E
:10053800020340EA0171C3F8841070476823C4F2CB
:1005480047231860704700BF4C23C4F24723186044
:10055800704700BF4FF46053C4F202039A6822F058
:10056800EC6240EA02020A439A6070474FF4605313
:10057800C4F202039A6822F0784240EA02020A436F
:100588009A6070474FF46053C4F202039A6822F0ED
:10059800030240EA02029A60704700BF4FF46053BA
:1005A800C4F20203986800F00C0070474FF46053DF
:1005B800C4F202039A6822F0F00240EA02029A604A
:1005C800704700BF4FF46053C4F202039A6822F4E4
:1005D800E05240EA02029A60704700BF4FF460534D
:1005E800C4F202039A6822F4604242EAC0029A60A6
:1005F800704700BF10B44FF46053C4F202039A6806
:1006080002F00C02042A02BF4FF49051C0F27A01A2
:10061800016006D0082A21D04FF41051C0F2F4012D
:1006280001604FF46052C4F2020240F2140394686D
:10063800C2F20003C4F303141C5DE14041609468F6
:10064800C4F382241C5D31FA04F484609268C2F316
:1006580042329B5CD940C16010BC70475C685A68E4
:1006680014F4800F5C6815BF4FF490534FF4105387
:10067800C0F27A03C0F2F40302F03F02B3FBF2F1D6
:100688004FF46053C4F20203C4F388145B68C3F3E5
:100698000143013301FB04F15B00B1FBF3F101609D
:1006A800BFE700BF00F44073B3F5407F0DD14FF4AE
:1006B8006053C4F2020320F070419A6821F440713B
:1006C80022F4F81241EA02029A604FF46053C4F22D
:1006D800020300051A6F000D10431867704700BF2A
:1006E80040F63C63C4F24723186070474FF46463D4
:1006F800C4F24723186070474FF4AE73C4F247231F
:100708001860704741B94FF46053C4F202031A6B82
:1007180022EA0000186370474FF46053C4F20203E2
:100728001A6B10431863704741B94FF46053C4F211
:1007380002035A6B22EA0000586370474FF4605373
:10074800C4F202035A6B10435863704741B94FF41F
:100758006053C4F202039A6B22EA00009863704760
:100768004FF46053C4F202039A6B104398637047C6
:1007780041B94FF46053C4F202031A6C22EA000034
:10078800186470474FF46053C4F202031A6C1043A4
:100798001864704741B94FF46053C4F202035A6CAD
:1007A80022EA0000586470474FF46053C4F2020311
:1007B8005A6C10435864704741B94FF46053C4F2FF
:1007C80002031A6922EA0000186170474FF4605367
:1007D800C4F202031A6910431861704741B94FF413
:1007E8006053C4F202035A6922EA00005861704754
:1007F8004FF46053C4F202035A69104358617047BA
:1008080041B94FF46053C4F202039A6922EA000026
:10081800986170474FF46053C4F202039A69104319
:100828009861704741B94FF46053C4F202031A6AE1
:1008380022EA0000186270474FF46053C4F20203C2
:100848001A6A10431862704741B94FF46053C4F2F2
:1008580002035A6A22EA0000586270474FF4605354
:10086800C4F202035A6A10435862704741B94FF400
:100878006053C4F202031A6D22EA0000186570473B
:100888004FF46053C4F202031A6D104318657047A1
:1008980041B94FF46053C4F202035A6D22EA0000D2
:1008A800586570474FF46053C4F202035A6D104301
:1008B8005865704741B94FF46053C4F202039A6D0A
:1008C80022EA0000986570474FF46053C4F20203AF
:1008D8009A6D10439865704741B94FF46053C4F25C
:1008E80002031A6E22EA0000186670474FF460533C
:1008F800C4F202031A6E10431866704741B94FF4E8
:100908006053C4F202035A6E22EA00005866704728
:100918004FF46053C4F202035A6E1043586670478E
:1009280041B943F60D03C4F202031A7822EA000023
:100938001870704743F60D03C4F202031A78104387
:10094800187070474309012B0ED0022B4FF46053E7
:10095800C4F2020300F01F000CBF1B6F5B6F33FA79
:1009680000F000F0010070474FF46053C4F2020336
:1009780000F01F001B6833FA00F000F00100704718
:100988004FF46053C4F202035A6F42F080725A6700
:10099800704700BF4FF46053C4F20203DB6818428B
:1009A8000CBF00200120704743F60E03C4F2020377
:1009B800187070470023C4F20203984210B53CD067
:1009C8004FF48063C4F20203984240D04FF40063AE
:1009D800C4F20203984244D04FF44063C4F20203C5
:1009E800984248D04FF48053C4F2020398424CD046
:1009F8004FF4A053C4F20203984250D04FF4C053AE
:100A0800C4F20203984254D04FF4E053C4F20203F4
:100A1800984258D04FF40053C4F20203984200D0D1
:100A280010BD01214FF48070FFF7C6FE4FF48070AF
:100A38000021BDE81040FFF7BFBE01200146FFF7C7
:100A4800BBFE01200021BDE81040FFF7B5BE022023
:100A58000121FFF7B1FE02200021BDE81040FFF799
:100A6800ABBE04200121FFF7A7FE04200021BDE84A
:100A78001040FFF7A1BE08200121FFF79DFE0820C6
:100A88000021BDE81040FFF797BE10200121FFF7B5
:100A980093FE10200021BDE81040FFF78DBE2020F6
:100AA8000121FFF789FE20200021BDE81040FFF753
:100AB80083BE40200121FFF77FFE40200021BDE8D2
:100AC8001040FFF779BE80200121FFF775FE8020D6
:100AD8000021BDE81040FFF76FBE00BF00232DE9DD
:100AE800F0070A681C4601274FF0030803E00134A9
:100AF8000233102C2DD017FA04F505EA0206AE428F
:100B0800F5D1D0F8009091F804C008FA03F5ED4348
:100B180005EA0909C0F80090D0F800900CFA03FA29
:100B28000CF1FF3C5FFA8CFC4AEA0909BCF1010FA1
:100B3800C0F8009010D9C66891F807C03540C56064
:100B4800C6680CFA03F5013435430233102CC5602E
:100B5800D1D1BDE8F0077047D0F808A091F805900A
:100B680091F806C005EA0A0AC0F808A0D0F808A05B
:100B780009FA03F949EA0A09C0F80890D0F804907C
:100B880029EA0606466046680CFA04FC1FFA8CFC43
:100B98004CEA06064660CEE700234FF6FF72026075
:100BA800037143718371C371704700BF82B04FF402
:100BB80080330193019B41EA03030193019BC361C5
:100BC800C161019BC361C3690193C369019302B009
:100BD800704700BF036919420CBF0020012070470D
:100BE800006980B2704700BF436919420CBF0020FA
:100BF80001207047406980B2704700BF0183704789
:100C0800418370470AB9418370470183704700BF29
:100C180041617047436981EA03034361704700BF3C
:100C2800CB08083301F0070130B4890050F823508D
:100C38000F248C4025EA040440F8234050F8234050
:100C480012FA01F141EA040440F8234030BC70472D
:100C5800002103E00A4B5B584350043109480A4B12
:100C680042189A42F6D3094A02E0002342F8043BAC
:100C7800074B9A42F9D3FFF795FAFFF763FB7047E2
:100C8800A00C000800000020240000202400002000
:080C98002C000020FEE7000023
:100CA000000000000000000001020304060708091C
:100CB000007A030A00000000010203040102030499
:040CC0000607080912
:0400000508000C598A
:00000001FF
